{
  "_format": "hh-sol-artifact-1",
  "contractName": "DarpoeMinterSplicer",
  "sourceName": "contracts/DarpoeMinterSplicer.sol",
  "abi": [
    {
      "anonymous": false,
      "inputs": [
        {
          "indexed": false,
          "internalType": "uint256",
          "name": "rejectedPoemId",
          "type": "uint256"
        },
        {
          "indexed": false,
          "internalType": "bytes32",
          "name": "newPoem",
          "type": "bytes32"
        }
      ],
      "name": "MintNewPoem",
      "type": "event"
    },
    {
      "inputs": [],
      "name": "BATCHSIZE",
      "outputs": [
        {
          "internalType": "uint256",
          "name": "",
          "type": "uint256"
        }
      ],
      "stateMutability": "view",
      "type": "function"
    },
    {
      "inputs": [],
      "name": "MAXPOEMS",
      "outputs": [
        {
          "internalType": "uint256",
          "name": "",
          "type": "uint256"
        }
      ],
      "stateMutability": "view",
      "type": "function"
    },
    {
      "inputs": [],
      "name": "MAXROUNDS",
      "outputs": [
        {
          "internalType": "uint256",
          "name": "",
          "type": "uint256"
        }
      ],
      "stateMutability": "view",
      "type": "function"
    },
    {
      "inputs": [],
      "name": "MAXVOTES",
      "outputs": [
        {
          "internalType": "uint256",
          "name": "",
          "type": "uint256"
        }
      ],
      "stateMutability": "view",
      "type": "function"
    },
    {
      "inputs": [],
      "name": "generatePoems",
      "outputs": [],
      "stateMutability": "nonpayable",
      "type": "function"
    },
    {
      "inputs": [
        {
          "internalType": "uint256",
          "name": "id",
          "type": "uint256"
        }
      ],
      "name": "getPoem",
      "outputs": [
        {
          "internalType": "bytes32",
          "name": "",
          "type": "bytes32"
        }
      ],
      "stateMutability": "view",
      "type": "function"
    },
    {
      "inputs": [],
      "name": "getPoems",
      "outputs": [
        {
          "internalType": "bytes32[1000]",
          "name": "",
          "type": "bytes32[1000]"
        }
      ],
      "stateMutability": "view",
      "type": "function"
    },
    {
      "inputs": [],
      "name": "getTotalVotes",
      "outputs": [
        {
          "internalType": "uint256",
          "name": "",
          "type": "uint256"
        }
      ],
      "stateMutability": "view",
      "type": "function"
    },
    {
      "inputs": [
        {
          "internalType": "address",
          "name": "_address",
          "type": "address"
        }
      ],
      "name": "getVoteBalance",
      "outputs": [
        {
          "internalType": "uint256",
          "name": "",
          "type": "uint256"
        }
      ],
      "stateMutability": "view",
      "type": "function"
    },
    {
      "inputs": [
        {
          "internalType": "uint256",
          "name": "",
          "type": "uint256"
        }
      ],
      "name": "poems",
      "outputs": [
        {
          "internalType": "bytes32",
          "name": "",
          "type": "bytes32"
        }
      ],
      "stateMutability": "view",
      "type": "function"
    },
    {
      "inputs": [],
      "name": "roundCounter",
      "outputs": [
        {
          "internalType": "uint256",
          "name": "",
          "type": "uint256"
        }
      ],
      "stateMutability": "view",
      "type": "function"
    },
    {
      "inputs": [
        {
          "internalType": "uint256",
          "name": "_selectedPoemId",
          "type": "uint256"
        },
        {
          "internalType": "uint256",
          "name": "_rejectedPoemId",
          "type": "uint256"
        }
      ],
      "name": "selectPoem",
      "outputs": [],
      "stateMutability": "nonpayable",
      "type": "function"
    },
    {
      "inputs": [],
      "name": "totalVotes",
      "outputs": [
        {
          "internalType": "uint256",
          "name": "",
          "type": "uint256"
        }
      ],
      "stateMutability": "view",
      "type": "function"
    },
    {
      "inputs": [
        {
          "internalType": "address",
          "name": "",
          "type": "address"
        }
      ],
      "name": "voteBalance",
      "outputs": [
        {
          "internalType": "uint256",
          "name": "",
          "type": "uint256"
        }
      ],
      "stateMutability": "view",
      "type": "function"
    }
  ],
  "bytecode": "0x6080604052600080556fffffffffffffffffffffffffffffffff60001b6103ea557fffffffffffffffffffffffffffffffffffffffffffffffffffffffffffffffff60001b6103eb5534801561005457600080fd5b506109a4806100646000396000f3fe608060405234801561001057600080fd5b50600436106100ea5760003560e01c80639a0e7d661161008c578063b242b14911610066578063b242b1491461027f578063e3f68bda146102c6578063ec667e5914610308578063febc14b114610360576100ea565b80639a0e7d661461020b578063a554d65114610229578063a5f357de14610261576100ea565b80635b93f270116100c85780635b93f2701461014957806380a4292b1461018b57806381269a18146101a957806392ca432014610201576100ea565b80630555a49a146100ef5780630d15fd771461010d57806330a096f61461012b575b600080fd5b6100f761037e565b6040518082815260200191505060405180910390f35b610115610383565b6040518082815260200191505060405180910390f35b610133610389565b6040518082815260200191505060405180910390f35b6101756004803603602081101561015f57600080fd5b8101908080359060200190929190505050610390565b6040518082815260200191505060405180910390f35b6101936103a9565b6040518082815260200191505060405180910390f35b6101eb600480360360208110156101bf57600080fd5b81019080803573ffffffffffffffffffffffffffffffffffffffff1690602001909291905050506103af565b6040518082815260200191505060405180910390f35b6102096103c8565b005b61021361050e565b6040518082815260200191505060405180910390f35b61025f6004803603604081101561023f57600080fd5b810190808035906020019092919080359060200190929190505050610518565b005b6102696106d4565b6040518082815260200191505060405180910390f35b6102876106d9565b60405180826103e860200280838360005b838110156102b3578082015181840152602081019050610298565b5050505090500191505060405180910390f35b6102f2600480360360208110156102dc57600080fd5b8101908080359060200190929190505050610726565b6040518082815260200191505060405180910390f35b61034a6004803603602081101561031e57600080fd5b81019080803573ffffffffffffffffffffffffffffffffffffffff16906020019092919050505061073f565b6040518082815260200191505060405180910390f35b610368610789565b6040518082815260200191505060405180910390f35b60fa81565b60015481565b620186a081565b6002816103e8811061039e57fe5b016000915090505481565b6103e881565b6103ec6020528060005260406000206000915090505481565b600460005410610440576040517f08c379a000000000000000000000000000000000000000000000000000000000815260040180806020018281038252601b8152602001807f4d617820706f656d732068617665206265656e2072656163686564000000000081525060200191505060405180910390fd5b61044b60005461078f565b6000805460fa0290505b60016000540160fa028110156104fa578060405160200180828152602001915050604051602081830303815290604052805190602001206002826103e8811061049a57fe5b01819055507f985ebe8e2eb555a55de33c6d8356107641be2e09f8fcf7bf636873d38595001b816002836103e881106104cf57fe5b0154604051808381526020018281526020019250505060405180910390a18080600101915050610455565b506000808154809291906001019190505550565b6000600154905090565b6000821015801561052a57506103e882105b8015610537575060008110155b801561054457506103e881105b80156105505750808214155b61055957600080fd5b620186a060015411156105d4576040517f08c379a00000000000000000000000000000000000000000000000000000000081526004018080602001828103825260188152602001807f4d617820766f7465732068617665206265656e2063617374000000000000000081525060200191505060405180910390fd5b60006105e08383610828565b9050806002836103e881106105f157fe5b018190555060016103ec60003373ffffffffffffffffffffffffffffffffffffffff1673ffffffffffffffffffffffffffffffffffffffff16815260200190815260200160002054016103ec60003373ffffffffffffffffffffffffffffffffffffffff1673ffffffffffffffffffffffffffffffffffffffff168152602001908152602001600020819055506001600081548092919060010191905055507f985ebe8e2eb555a55de33c6d8356107641be2e09f8fcf7bf636873d38595001b8282604051808381526020018281526020019250505060405180910390a1505050565b600481565b6106e161094a565b60026103e88060200260405190810160405280929190826103e8801561071c576020028201915b815481526020019060010190808311610708575b5050505050905090565b60006002826103e8811061073657fe5b01549050919050565b60006103ec60008373ffffffffffffffffffffffffffffffffffffffff1673ffffffffffffffffffffffffffffffffffffffff168152602001908152602001600020549050919050565b60005481565b61082581604051602401808281526020019150506040516020818303038152906040527ff5b1bba9000000000000000000000000000000000000000000000000000000007bffffffffffffffffffffffffffffffffffffffffffffffffffffffff19166020820180517bffffffffffffffffffffffffffffffffffffffffffffffffffffffff8381831617835250505050610898565b50565b60008061083f6080426108c190919063ffffffff16565b90506000816103ea54901b90506000816103eb541890506000826002886103e8811061086757fe5b01541690506000826002886103e8811061087d57fe5b01541690506000818317905080965050505050505092915050565b60008151905060006a636f6e736f6c652e6c6f679050602083016000808483855afa5050505050565b6000808211610938576040517f08c379a00000000000000000000000000000000000000000000000000000000081526004018080602001828103825260188152602001807f536166654d6174683a206d6f64756c6f206279207a65726f000000000000000081525060200191505060405180910390fd5b81838161094157fe5b06905092915050565b60405180617d0001604052806103e89060208202803683378082019150509050509056fea26469706673582212208bcac5166c22c49dfedefd8466c51a39db758d545eb7d68c57c89e5e679b141064736f6c63430007030033",
  "linkReferences": {},
  "deployedLinkReferences": {}
}