{
  "_format": "hh-sol-artifact-1",
  "contractName": "DarpoeMinterSplicer",
  "sourceName": "contracts/DarpoeMinterSplicer.sol",
  "abi": [
    {
      "anonymous": false,
      "inputs": [
        {
          "indexed": false,
          "internalType": "uint256",
          "name": "rejectedPoemId",
          "type": "uint256"
        },
        {
          "indexed": false,
          "internalType": "bytes32",
          "name": "newPoem",
          "type": "bytes32"
        }
      ],
      "name": "MintNewPoem",
      "type": "event"
    },
    {
      "inputs": [],
      "name": "BATCHSIZE",
      "outputs": [
        {
          "internalType": "uint256",
          "name": "",
          "type": "uint256"
        }
      ],
      "stateMutability": "view",
      "type": "function"
    },
    {
      "inputs": [],
      "name": "MAXPOEMS",
      "outputs": [
        {
          "internalType": "uint256",
          "name": "",
          "type": "uint256"
        }
      ],
      "stateMutability": "view",
      "type": "function"
    },
    {
      "inputs": [],
      "name": "MAXROUNDS",
      "outputs": [
        {
          "internalType": "uint256",
          "name": "",
          "type": "uint256"
        }
      ],
      "stateMutability": "view",
      "type": "function"
    },
    {
      "inputs": [],
      "name": "MAXVOTES",
      "outputs": [
        {
          "internalType": "uint256",
          "name": "",
          "type": "uint256"
        }
      ],
      "stateMutability": "view",
      "type": "function"
    },
    {
      "inputs": [],
      "name": "generatePoems",
      "outputs": [],
      "stateMutability": "nonpayable",
      "type": "function"
    },
    {
      "inputs": [
        {
          "internalType": "uint256",
          "name": "id",
          "type": "uint256"
        }
      ],
      "name": "getPoem",
      "outputs": [
        {
          "internalType": "bytes32",
          "name": "",
          "type": "bytes32"
        }
      ],
      "stateMutability": "view",
      "type": "function"
    },
    {
      "inputs": [],
      "name": "getPoems",
      "outputs": [
        {
          "internalType": "bytes32[1000]",
          "name": "",
          "type": "bytes32[1000]"
        }
      ],
      "stateMutability": "view",
      "type": "function"
    },
    {
      "inputs": [],
      "name": "getTotalVotes",
      "outputs": [
        {
          "internalType": "uint256",
          "name": "",
          "type": "uint256"
        }
      ],
      "stateMutability": "view",
      "type": "function"
    },
    {
      "inputs": [],
      "name": "getTwoPoems",
      "outputs": [
        {
          "internalType": "uint256",
          "name": "IDofFirstPoem",
          "type": "uint256"
        },
        {
          "internalType": "bytes32",
          "name": "poemA",
          "type": "bytes32"
        },
        {
          "internalType": "uint256",
          "name": "IDofSecondPoem",
          "type": "uint256"
        },
        {
          "internalType": "bytes32",
          "name": "poemB",
          "type": "bytes32"
        }
      ],
      "stateMutability": "view",
      "type": "function"
    },
    {
      "inputs": [
        {
          "internalType": "address",
          "name": "_address",
          "type": "address"
        }
      ],
      "name": "getVoteBalance",
      "outputs": [
        {
          "internalType": "uint256",
          "name": "",
          "type": "uint256"
        }
      ],
      "stateMutability": "view",
      "type": "function"
    },
    {
      "inputs": [
        {
          "internalType": "uint256",
          "name": "",
          "type": "uint256"
        }
      ],
      "name": "poems",
      "outputs": [
        {
          "internalType": "bytes32",
          "name": "",
          "type": "bytes32"
        }
      ],
      "stateMutability": "view",
      "type": "function"
    },
    {
      "inputs": [],
      "name": "roundCounter",
      "outputs": [
        {
          "internalType": "uint256",
          "name": "",
          "type": "uint256"
        }
      ],
      "stateMutability": "view",
      "type": "function"
    },
    {
      "inputs": [
        {
          "internalType": "uint256",
          "name": "_selectedPoemId",
          "type": "uint256"
        },
        {
          "internalType": "uint256",
          "name": "_rejectedPoemId",
          "type": "uint256"
        }
      ],
      "name": "selectPoem",
      "outputs": [],
      "stateMutability": "nonpayable",
      "type": "function"
    },
    {
      "inputs": [],
      "name": "totalVotes",
      "outputs": [
        {
          "internalType": "uint256",
          "name": "",
          "type": "uint256"
        }
      ],
      "stateMutability": "view",
      "type": "function"
    },
    {
      "inputs": [
        {
          "internalType": "address",
          "name": "",
          "type": "address"
        }
      ],
      "name": "voteBalance",
      "outputs": [
        {
          "internalType": "uint256",
          "name": "",
          "type": "uint256"
        }
      ],
      "stateMutability": "view",
      "type": "function"
    }
  ],
  "bytecode": "0x6080604052600080556fffffffffffffffffffffffffffffffff60001b6103ea557fffffffffffffffffffffffffffffffffffffffffffffffffffffffffffffffff60001b6103eb5534801561005457600080fd5b50610a75806100646000396000f3fe608060405234801561001057600080fd5b50600436106100f55760003560e01c806397bbe28311610097578063b242b14911610066578063b242b149146102bd578063e3f68bda14610304578063ec667e5914610346578063febc14b11461039e576100f5565b806397bbe283146102165780639a0e7d6614610249578063a554d65114610267578063a5f357de1461029f576100f5565b80635b93f270116100d35780635b93f2701461015457806380a4292b1461019657806381269a18146101b457806392ca43201461020c576100f5565b80630555a49a146100fa5780630d15fd771461011857806330a096f614610136575b600080fd5b6101026103bc565b6040518082815260200191505060405180910390f35b6101206103c1565b6040518082815260200191505060405180910390f35b61013e6103c7565b6040518082815260200191505060405180910390f35b6101806004803603602081101561016a57600080fd5b81019080803590602001909291905050506103ce565b6040518082815260200191505060405180910390f35b61019e6103e7565b6040518082815260200191505060405180910390f35b6101f6600480360360208110156101ca57600080fd5b81019080803573ffffffffffffffffffffffffffffffffffffffff1690602001909291905050506103ed565b6040518082815260200191505060405180910390f35b610214610406565b005b61021e61054c565b6040518085815260200184815260200183815260200182815260200194505050505060405180910390f35b6102516105c7565b6040518082815260200191505060405180910390f35b61029d6004803603604081101561027d57600080fd5b8101908080359060200190929190803590602001909291905050506105d1565b005b6102a761078c565b6040518082815260200191505060405180910390f35b6102c5610791565b60405180826103e860200280838360005b838110156102f15780820151818401526020810190506102d6565b5050505090500191505060405180910390f35b6103306004803603602081101561031a57600080fd5b81019080803590602001909291905050506107de565b6040518082815260200191505060405180910390f35b6103886004803603602081101561035c57600080fd5b81019080803573ffffffffffffffffffffffffffffffffffffffff1690602001909291905050506107f7565b6040518082815260200191505060405180910390f35b6103a6610841565b6040518082815260200191505060405180910390f35b60fa81565b60015481565b620186a081565b6002816103e881106103dc57fe5b016000915090505481565b6103e881565b6103ec6020528060005260406000206000915090505481565b60046000541061047e576040517f08c379a000000000000000000000000000000000000000000000000000000000815260040180806020018281038252601b8152602001807f4d617820706f656d732068617665206265656e2072656163686564000000000081525060200191505060405180910390fd5b610489600054610847565b6000805460fa0290505b60016000540160fa02811015610538578060405160200180828152602001915050604051602081830303815290604052805190602001206002826103e881106104d857fe5b01819055507f985ebe8e2eb555a55de33c6d8356107641be2e09f8fcf7bf636873d38595001b816002836103e8811061050d57fe5b0154604051808381526020018281526020019250505060405180910390a18080600101915050610493565b506000808154809291906001019190505550565b60008060008060006105696103e8426108e090919063ffffffff16565b905060006105826103e8436108e090919063ffffffff16565b9050808214156105955780806001019150505b816002836103e881106105a457fe5b0154826002846103e881106105b557fe5b01549550955095509550505090919293565b6000600154905090565b600082101580156105e357506103e882105b80156105f0575060008110155b80156105fd57506103e881105b80156106095750808214155b61061257600080fd5b620186a0600154111561068d576040517f08c379a00000000000000000000000000000000000000000000000000000000081526004018080602001828103825260188152602001807f4d617820766f7465732068617665206265656e2063617374000000000000000081525060200191505060405180910390fd5b600061069883610969565b9050806002836103e881106106a957fe5b018190555060016103ec60003373ffffffffffffffffffffffffffffffffffffffff1673ffffffffffffffffffffffffffffffffffffffff16815260200190815260200160002054016103ec60003373ffffffffffffffffffffffffffffffffffffffff1673ffffffffffffffffffffffffffffffffffffffff168152602001908152602001600020819055506001600081548092919060010191905055507f985ebe8e2eb555a55de33c6d8356107641be2e09f8fcf7bf636873d38595001b8282604051808381526020018281526020019250505060405180910390a1505050565b600481565b610799610a1b565b60026103e88060200260405190810160405280929190826103e880156107d4576020028201915b8154815260200190600101908083116107c0575b5050505050905090565b60006002826103e881106107ee57fe5b01549050919050565b60006103ec60008373ffffffffffffffffffffffffffffffffffffffff1673ffffffffffffffffffffffffffffffffffffffff168152602001908152602001600020549050919050565b60005481565b6108dd81604051602401808281526020019150506040516020818303038152906040527ff5b1bba9000000000000000000000000000000000000000000000000000000007bffffffffffffffffffffffffffffffffffffffffffffffffffffffff19166020820180517bffffffffffffffffffffffffffffffffffffffffffffffffffffffff83818316178352505050506109f2565b50565b6000808211610957576040517f08c379a00000000000000000000000000000000000000000000000000000000081526004018080602001828103825260188152602001807f536166654d6174683a206d6f64756c6f206279207a65726f000000000000000081525060200191505060405180910390fd5b81838161096057fe5b06905092915050565b6000806109816103e8426108e090919063ffffffff16565b905060006109996080426108e090919063ffffffff16565b90506000816103ea54901b90506000816103eb541890506000826002886103e881106109c157fe5b01541690506000826002876103e881106109d757fe5b01541690506000818317905080975050505050505050919050565b60008151905060006a636f6e736f6c652e6c6f679050602083016000808483855afa5050505050565b60405180617d0001604052806103e89060208202803683378082019150509050509056fea2646970667358221220cc7595a4f6e7ecffa72f93bec93e9231a7fd34cef7e1edc00c64a2271184e23c64736f6c63430007030033",
  "linkReferences": {},
  "deployedLinkReferences": {}
}